:060000000A128A11142906
:10000800F000030EF1000B1912200C185D208C185B
:100018006C20710E8300F00E700E0900031383121A
:10002800FE3081000B11880120182A28A0182E28DC
:1000380020193228A0193628201A3A28A01A3E2852
:10004800201B422822088700081446282308870016
:10005800881449282408870008154C282508870093
:1000680088154F2826088700081652282708870071
:10007800881655282808870008175828290887004F
:1000880088175B280130A00608000330A006080086
:100098000630A00608000C30A00608001830A0069C
:1000A80008003030A00608006030A0060800A00153
:1000B800080003138312EE308E0085308F000C1079
:1000C800C2186A28B503B603B7030800B4030800CA
:1000D80003138316F5309200031383128C10401813
:0A00E80077284014080040100800BB
:100200008A010A140F3982073F3406345B344F34B5
:1002100066346D347D3407347F346F3477347C3406
:1002200039345E3479347134DD21F5210B221A2200
:100230002A22FC21B501B601B7010F30B800B90080
:10024000BA00BD00BE00BF003D08B500B6003E07C5
:10025000B700411403138312061C6A224118A0221E
:10026000C118B0224119BE22C119CE22411ADC2286
:10027000C11AEA22411BFA22C11B08234218162385
:10028000211847294329A1184F294B292C29A118A6
:10029000532957292C2921199A295B292C292119FD
:1002A000A62974292C292119A62987292C29211945
:1002B000A62961292C29091089100911A801A90171
:1002C0002C293808BC00091489100911861C6E22DB
:1002D000061D74223C08B800BB0057222A08AE0055
:1002E0002F08B30050222C293908BC0009108914AA
:1002F0000911861C6E22061D74223C08B900BB0041
:1003000057222A08AE002F08B30050222C293A08A1
:10031000BC00091089100915861C6E22061D742266
:100320003C08BA00BB0057222A08AE002F08B300D1
:1003300050222C290914891409150530B400A8018C
:10034000A901861CA829061DC9292C29A1012C292F
:10035000861CA829A1010514851005118515051213
:100360008512051785138611C2143408BB00572265
:100370002A08AE002F08B3005022A201A301A40155
:10038000A501A601A701013034020319CD29A8292E
:100390002C29061DC929A1012C293808BD003908BE
:1003A000BE003A08BF003D08B500B6003E07B700E2
:1003B000C1014210C21041142C2903178316880171
:1003C00089010313831685010730860087018801A0
:1003D00089018113151495141515031383128501D2
:1003E00086018701880189010800031383160F170E
:1003F0008F120F120F140800031383128B170B17A1
:100400008B160B11031383160C148C140313831215
:100410000C108C1008000313831681128111011532
:10042000811401140313831203138312FE3081001D
:100430000B1108000313831210149010101690165D
:100440000313831203138312EE308E0085308F0066
:100450000C100800031383129214121412151217B1
:100460009216121692150313831603138316F53092
:100470009200031383128C1008002B080021A200A5
:1004800030080021A3002C080021A400310800211D
:10049000A5002D080021A60032080021A7000800B1
:1004A0002E080021A80033080021A9000800AF0190
:1004B0000A303B020318AF0A0318BB000318582A7E
:1004C00062220800AA010130BB020318AA0A031C19
:1004D0000800632A061C6A2AA10A0800861C6E2AE4
:1004E000BC0A82223C080800061D742ABC037A223A
:1004F0003C08080009303C0203197F2A0800143028
:10050000BC00080015303C020319872A08000A3095
:10051000BC0008003508BB0057222A08AB002F0892
:10052000B0003608BB0057222A08AC002F08B100E3
:100530003708BB0057222A08AD002F08B200080078
:100540008A223D228611051085130515851505178C
:10055000063036020319AD2208004110C11408000C
:100560008A223D22401C0511401805150330360231
:100570000319BB220800C110411508008A223D2240
:10058000051185143E0837020319C72208004111DE
:10059000C1153E08B6003F07B50008008A223D227B
:1005A0008510851105148516063037020319D922E6
:1005B0000800C111411608008A223D22401C851204
:1005C00040188516033037020319E722080041124C
:1005D000C11608008A223D22851205163F08350201
:1005E0000319F3220800C11241173F08B7003D0765
:1005F000B60008008A223D220512051385158615CE
:10060000063035020319052308004113C1170800FD
:100610008A223D22401C861140188615033035027F
:10062000031913230800C113421408008A223D2233
:10063000861185173D08360203191F230800421052
:0C06400041143D08B5003E07B70008005B
:04400E00C430FF3F7C
:00000001FF
